{
  "contractName": "IqbalNotes",
  "abi": [
    {
      "inputs": [],
      "stateMutability": "nonpayable",
      "type": "constructor"
    },
    {
      "anonymous": false,
      "inputs": [
        {
          "indexed": true,
          "internalType": "address",
          "name": "owner",
          "type": "address"
        },
        {
          "indexed": true,
          "internalType": "address",
          "name": "approved",
          "type": "address"
        },
        {
          "indexed": true,
          "internalType": "uint256",
          "name": "tokenId",
          "type": "uint256"
        }
      ],
      "name": "Approval",
      "type": "event"
    },
    {
      "anonymous": false,
      "inputs": [
        {
          "indexed": true,
          "internalType": "address",
          "name": "owner",
          "type": "address"
        },
        {
          "indexed": true,
          "internalType": "address",
          "name": "operator",
          "type": "address"
        },
        {
          "indexed": false,
          "internalType": "bool",
          "name": "approved",
          "type": "bool"
        }
      ],
      "name": "ApprovalForAll",
      "type": "event"
    },
    {
      "anonymous": false,
      "inputs": [
        {
          "indexed": true,
          "internalType": "uint256",
          "name": "_articleId",
          "type": "uint256"
        },
        {
          "indexed": true,
          "internalType": "string",
          "name": "_slug",
          "type": "string"
        },
        {
          "indexed": false,
          "internalType": "uint256",
          "name": "_timestamp",
          "type": "uint256"
        },
        {
          "indexed": false,
          "internalType": "string",
          "name": "_title",
          "type": "string"
        }
      ],
      "name": "NewArticlePublished",
      "type": "event"
    },
    {
      "anonymous": false,
      "inputs": [
        {
          "indexed": true,
          "internalType": "string",
          "name": "_baseURI",
          "type": "string"
        },
        {
          "indexed": false,
          "internalType": "uint256",
          "name": "timestamp",
          "type": "uint256"
        }
      ],
      "name": "PromoteNewBaseURI",
      "type": "event"
    },
    {
      "anonymous": false,
      "inputs": [
        {
          "indexed": true,
          "internalType": "address",
          "name": "from",
          "type": "address"
        },
        {
          "indexed": true,
          "internalType": "address",
          "name": "to",
          "type": "address"
        },
        {
          "indexed": true,
          "internalType": "uint256",
          "name": "tokenId",
          "type": "uint256"
        }
      ],
      "name": "Transfer",
      "type": "event"
    },
    {
      "inputs": [],
      "name": "BASEURI",
      "outputs": [
        {
          "internalType": "string",
          "name": "",
          "type": "string"
        }
      ],
      "stateMutability": "view",
      "type": "function"
    },
    {
      "inputs": [
        {
          "internalType": "address",
          "name": "to",
          "type": "address"
        },
        {
          "internalType": "uint256",
          "name": "tokenId",
          "type": "uint256"
        }
      ],
      "name": "approve",
      "outputs": [],
      "stateMutability": "nonpayable",
      "type": "function"
    },
    {
      "inputs": [
        {
          "internalType": "address",
          "name": "owner",
          "type": "address"
        }
      ],
      "name": "balanceOf",
      "outputs": [
        {
          "internalType": "uint256",
          "name": "",
          "type": "uint256"
        }
      ],
      "stateMutability": "view",
      "type": "function"
    },
    {
      "inputs": [
        {
          "internalType": "uint256",
          "name": "tokenId",
          "type": "uint256"
        }
      ],
      "name": "getApproved",
      "outputs": [
        {
          "internalType": "address",
          "name": "",
          "type": "address"
        }
      ],
      "stateMutability": "view",
      "type": "function"
    },
    {
      "inputs": [
        {
          "internalType": "address",
          "name": "owner",
          "type": "address"
        },
        {
          "internalType": "address",
          "name": "operator",
          "type": "address"
        }
      ],
      "name": "isApprovedForAll",
      "outputs": [
        {
          "internalType": "bool",
          "name": "",
          "type": "bool"
        }
      ],
      "stateMutability": "view",
      "type": "function"
    },
    {
      "inputs": [],
      "name": "name",
      "outputs": [
        {
          "internalType": "string",
          "name": "",
          "type": "string"
        }
      ],
      "stateMutability": "view",
      "type": "function"
    },
    {
      "inputs": [],
      "name": "owner",
      "outputs": [
        {
          "internalType": "address",
          "name": "",
          "type": "address"
        }
      ],
      "stateMutability": "view",
      "type": "function"
    },
    {
      "inputs": [
        {
          "internalType": "uint256",
          "name": "tokenId",
          "type": "uint256"
        }
      ],
      "name": "ownerOf",
      "outputs": [
        {
          "internalType": "address",
          "name": "",
          "type": "address"
        }
      ],
      "stateMutability": "view",
      "type": "function"
    },
    {
      "inputs": [
        {
          "internalType": "address",
          "name": "from",
          "type": "address"
        },
        {
          "internalType": "address",
          "name": "to",
          "type": "address"
        },
        {
          "internalType": "uint256",
          "name": "tokenId",
          "type": "uint256"
        }
      ],
      "name": "safeTransferFrom",
      "outputs": [],
      "stateMutability": "nonpayable",
      "type": "function"
    },
    {
      "inputs": [
        {
          "internalType": "address",
          "name": "from",
          "type": "address"
        },
        {
          "internalType": "address",
          "name": "to",
          "type": "address"
        },
        {
          "internalType": "uint256",
          "name": "tokenId",
          "type": "uint256"
        },
        {
          "internalType": "bytes",
          "name": "_data",
          "type": "bytes"
        }
      ],
      "name": "safeTransferFrom",
      "outputs": [],
      "stateMutability": "nonpayable",
      "type": "function"
    },
    {
      "inputs": [
        {
          "internalType": "address",
          "name": "operator",
          "type": "address"
        },
        {
          "internalType": "bool",
          "name": "approved",
          "type": "bool"
        }
      ],
      "name": "setApprovalForAll",
      "outputs": [],
      "stateMutability": "nonpayable",
      "type": "function"
    },
    {
      "inputs": [
        {
          "internalType": "bytes4",
          "name": "interfaceId",
          "type": "bytes4"
        }
      ],
      "name": "supportsInterface",
      "outputs": [
        {
          "internalType": "bool",
          "name": "",
          "type": "bool"
        }
      ],
      "stateMutability": "view",
      "type": "function"
    },
    {
      "inputs": [],
      "name": "symbol",
      "outputs": [
        {
          "internalType": "string",
          "name": "",
          "type": "string"
        }
      ],
      "stateMutability": "view",
      "type": "function"
    },
    {
      "inputs": [
        {
          "internalType": "address",
          "name": "from",
          "type": "address"
        },
        {
          "internalType": "address",
          "name": "to",
          "type": "address"
        },
        {
          "internalType": "uint256",
          "name": "tokenId",
          "type": "uint256"
        }
      ],
      "name": "transferFrom",
      "outputs": [],
      "stateMutability": "nonpayable",
      "type": "function"
    },
    {
      "inputs": [
        {
          "internalType": "uint256",
          "name": "_id",
          "type": "uint256"
        }
      ],
      "name": "article",
      "outputs": [
        {
          "internalType": "string",
          "name": "",
          "type": "string"
        },
        {
          "internalType": "string",
          "name": "",
          "type": "string"
        },
        {
          "internalType": "string",
          "name": "",
          "type": "string"
        },
        {
          "internalType": "string",
          "name": "",
          "type": "string"
        },
        {
          "internalType": "uint256",
          "name": "timestamp",
          "type": "uint256"
        }
      ],
      "stateMutability": "view",
      "type": "function"
    },
    {
      "inputs": [
        {
          "internalType": "string",
          "name": "title",
          "type": "string"
        },
        {
          "internalType": "string",
          "name": "slug",
          "type": "string"
        },
        {
          "internalType": "string",
          "name": "body",
          "type": "string"
        },
        {
          "internalType": "string",
          "name": "signature",
          "type": "string"
        }
      ],
      "name": "writeNewArticle",
      "outputs": [
        {
          "internalType": "uint256",
          "name": "",
          "type": "uint256"
        }
      ],
      "stateMutability": "nonpayable",
      "type": "function"
    },
    {
      "inputs": [
        {
          "internalType": "string",
          "name": "newBaseURI",
          "type": "string"
        }
      ],
      "name": "promoteNewBaseURI",
      "outputs": [
        {
          "internalType": "bool",
          "name": "",
          "type": "bool"
        }
      ],
      "stateMutability": "nonpayable",
      "type": "function"
    },
    {
      "inputs": [
        {
          "internalType": "uint256",
          "name": "tokenId",
          "type": "uint256"
        }
      ],
      "name": "tokenURI",
      "outputs": [
        {
          "internalType": "string",
          "name": "",
          "type": "string"
        }
      ],
      "stateMutability": "view",
      "type": "function"
    }
  ],
  "bytecode": "0x60806040523480156200001157600080fd5b506040518060400160405280601581526020017f6e6f7465732e697162616c7379616d696c2e636f6d00000000000000000000008152506040518060400160405280600a81526020017f495142414c4e4f54455300000000000000000000000000000000000000000000815250816000908051906020019062000096929190620000f9565b508060019080519060200190620000af929190620000f9565b50505033600960006101000a81548173ffffffffffffffffffffffffffffffffffffffff021916908373ffffffffffffffffffffffffffffffffffffffff1602179055506200020e565b8280546200010790620001a9565b90600052602060002090601f0160209004810192826200012b576000855562000177565b82601f106200014657805160ff191683800117855562000177565b8280016001018555821562000177579182015b828111156200017657825182559160200191906001019062000159565b5b5090506200018691906200018a565b5090565b5b80821115620001a55760008160009055506001016200018b565b5090565b60006002820490506001821680620001c257607f821691505b60208210811415620001d957620001d8620001df565b5b50919050565b7f4e487b7100000000000000000000000000000000000000000000000000000000600052602260045260246000fd5b61355b806200021e6000396000f3fe608060405234801561001057600080fd5b50600436106101165760003560e01c8063896146e7116100a2578063a22cb46511610071578063a22cb4651461030b578063b88d4fde14610327578063c87b56dd14610343578063e46e08e714610373578063e985e9c5146103a357610116565b8063896146e7146102815780638da5cb5b146102b157806395d89b41146102cf5780639ef5c7eb146102ed57610116565b806314419447116100e957806314419447146101b557806323b872dd146101e957806342842e0e146102055780636352211e1461022157806370a082311461025157610116565b806301ffc9a71461011b57806306fdde031461014b578063081812fc14610169578063095ea7b314610199575b600080fd5b6101356004803603810190610130919061237e565b6103d3565b6040516101429190612dbf565b60405180910390f35b6101536104b5565b6040516101609190612dda565b60405180910390f35b610183600480360381019061017e91906124d4565b610547565b6040516101909190612d58565b60405180910390f35b6101b360048036038101906101ae9190612342565b6105cc565b005b6101cf60048036038101906101ca91906124d4565b6106e4565b6040516101e0959493929190612dfc565b60405180910390f35b61020360048036038101906101fe919061223c565b61098c565b005b61021f600480360381019061021a919061223c565b6109ec565b005b61023b600480360381019061023691906124d4565b610a0c565b6040516102489190612d58565b60405180910390f35b61026b600480360381019061026691906121d7565b610abe565b60405161027891906130ab565b60405180910390f35b61029b60048036038101906102969190612411565b610b76565b6040516102a891906130ab565b60405180910390f35b6102b9610c8c565b6040516102c69190612d58565b60405180910390f35b6102d7610cb2565b6040516102e49190612dda565b60405180910390f35b6102f5610d44565b6040516103029190612dda565b60405180910390f35b61032560048036038101906103209190612306565b610dd2565b005b610341600480360381019061033c919061228b565b610f53565b005b61035d600480360381019061035891906124d4565b610fb5565b60405161036a9190612dda565b60405180910390f35b61038d600480360381019061038891906123d0565b610fc7565b60405161039a9190612dbf565b60405180910390f35b6103bd60048036038101906103b89190612200565b6110c7565b6040516103ca9190612dbf565b60405180910390f35b60007f80ac58cd000000000000000000000000000000000000000000000000000000007bffffffffffffffffffffffffffffffffffffffffffffffffffffffff1916827bffffffffffffffffffffffffffffffffffffffffffffffffffffffff1916148061049e57507f5b5e139f000000000000000000000000000000000000000000000000000000007bffffffffffffffffffffffffffffffffffffffffffffffffffffffff1916827bffffffffffffffffffffffffffffffffffffffffffffffffffffffff1916145b806104ae57506104ad8261115b565b5b9050919050565b6060600080546104c490613350565b80601f01602080910402602001604051908101604052809291908181526020018280546104f090613350565b801561053d5780601f106105125761010080835404028352916020019161053d565b820191906000526020600020905b81548152906001019060200180831161052057829003601f168201915b5050505050905090565b6000610552826111c5565b610591576040517f08c379a00000000000000000000000000000000000000000000000000000000081526004016105889061300b565b60405180910390fd5b6004600083815260200190815260200160002060009054906101000a900473ffffffffffffffffffffffffffffffffffffffff169050919050565b60006105d782610a0c565b90508073ffffffffffffffffffffffffffffffffffffffff168373ffffffffffffffffffffffffffffffffffffffff161415610648576040517f08c379a000000000000000000000000000000000000000000000000000000000815260040161063f9061306b565b60405180910390fd5b8073ffffffffffffffffffffffffffffffffffffffff16610667611231565b73ffffffffffffffffffffffffffffffffffffffff161480610696575061069581610690611231565b6110c7565b5b6106d5576040517f08c379a00000000000000000000000000000000000000000000000000000000081526004016106cc90612f4b565b60405180910390fd5b6106df8383611239565b505050565b606080606080600080600a60008881526020019081526020016000206040518060a001604052908160008201805461071b90613350565b80601f016020809104026020016040519081016040528092919081815260200182805461074790613350565b80156107945780601f1061076957610100808354040283529160200191610794565b820191906000526020600020905b81548152906001019060200180831161077757829003601f168201915b505050505081526020016001820180546107ad90613350565b80601f01602080910402602001604051908101604052809291908181526020018280546107d990613350565b80156108265780601f106107fb57610100808354040283529160200191610826565b820191906000526020600020905b81548152906001019060200180831161080957829003601f168201915b5050505050815260200160028201805461083f90613350565b80601f016020809104026020016040519081016040528092919081815260200182805461086b90613350565b80156108b85780601f1061088d576101008083540402835291602001916108b8565b820191906000526020600020905b81548152906001019060200180831161089b57829003601f168201915b505050505081526020016003820180546108d190613350565b80601f01602080910402602001604051908101604052809291908181526020018280546108fd90613350565b801561094a5780601f1061091f5761010080835404028352916020019161094a565b820191906000526020600020905b81548152906001019060200180831161092d57829003601f168201915b50505050508152602001600482015481525050905080600001518160200151826040015183606001518460800151955095509550955095505091939590929450565b61099d610997611231565b826112f2565b6109dc576040517f08c379a00000000000000000000000000000000000000000000000000000000081526004016109d39061308b565b60405180910390fd5b6109e78383836113d0565b505050565b610a0783838360405180602001604052806000815250610f53565b505050565b6000806002600084815260200190815260200160002060009054906101000a900473ffffffffffffffffffffffffffffffffffffffff169050600073ffffffffffffffffffffffffffffffffffffffff168173ffffffffffffffffffffffffffffffffffffffff161415610ab5576040517f08c379a0000000000000000000000000000000000000000000000000000000008152600401610aac90612f8b565b60405180910390fd5b80915050919050565b60008073ffffffffffffffffffffffffffffffffffffffff168273ffffffffffffffffffffffffffffffffffffffff161415610b2f576040517f08c379a0000000000000000000000000000000000000000000000000000000008152600401610b2690612f6b565b60405180910390fd5b600360008373ffffffffffffffffffffffffffffffffffffffff1673ffffffffffffffffffffffffffffffffffffffff168152602001908152602001600020549050919050565b6000600960009054906101000a900473ffffffffffffffffffffffffffffffffffffffff1673ffffffffffffffffffffffffffffffffffffffff163373ffffffffffffffffffffffffffffffffffffffff1614610c08576040517f08c379a0000000000000000000000000000000000000000000000000000000008152600401610bff90612eab565b60405180910390fd5b610c12600761162c565b6000610c1e6007611642565b9050610c2d8186888787611650565b610c6c576040517f08c379a0000000000000000000000000000000000000000000000000000000008152600401610c6390612f2b565b60405180910390fd5b610c763382611776565b610c808186611944565b80915050949350505050565b600960009054906101000a900473ffffffffffffffffffffffffffffffffffffffff1681565b606060018054610cc190613350565b80601f0160208091040260200160405190810160405280929190818152602001828054610ced90613350565b8015610d3a5780601f10610d0f57610100808354040283529160200191610d3a565b820191906000526020600020905b815481529060010190602001808311610d1d57829003601f168201915b5050505050905090565b60088054610d5190613350565b80601f0160208091040260200160405190810160405280929190818152602001828054610d7d90613350565b8015610dca5780601f10610d9f57610100808354040283529160200191610dca565b820191906000526020600020905b815481529060010190602001808311610dad57829003601f168201915b505050505081565b610dda611231565b73ffffffffffffffffffffffffffffffffffffffff168273ffffffffffffffffffffffffffffffffffffffff161415610e48576040517f08c379a0000000000000000000000000000000000000000000000000000000008152600401610e3f90612eeb565b60405180910390fd5b8060056000610e55611231565b73ffffffffffffffffffffffffffffffffffffffff1673ffffffffffffffffffffffffffffffffffffffff16815260200190815260200160002060008473ffffffffffffffffffffffffffffffffffffffff1673ffffffffffffffffffffffffffffffffffffffff16815260200190815260200160002060006101000a81548160ff0219169083151502179055508173ffffffffffffffffffffffffffffffffffffffff16610f02611231565b73ffffffffffffffffffffffffffffffffffffffff167f17307eab39ab6107e8899845ad3d59bd9653f200f220920489ca2b5937696c3183604051610f479190612dbf565b60405180910390a35050565b610f64610f5e611231565b836112f2565b610fa3576040517f08c379a0000000000000000000000000000000000000000000000000000000008152600401610f9a9061308b565b60405180910390fd5b610faf848484846119b8565b50505050565b6060610fc082611a14565b9050919050565b6000600960009054906101000a900473ffffffffffffffffffffffffffffffffffffffff1673ffffffffffffffffffffffffffffffffffffffff163373ffffffffffffffffffffffffffffffffffffffff1614611059576040517f08c379a000000000000000000000000000000000000000000000000000000000815260040161105090612eab565b60405180910390fd5b816008908051906020019061106f929190611ffb565b50600860405161107f9190612d41565b60405180910390207ff5056ba97042f4297ce71a06e68d7cc1999cab8baef2e7c2886dd811d2685ace426040516110b691906130ab565b60405180910390a260019050919050565b6000600560008473ffffffffffffffffffffffffffffffffffffffff1673ffffffffffffffffffffffffffffffffffffffff16815260200190815260200160002060008373ffffffffffffffffffffffffffffffffffffffff1673ffffffffffffffffffffffffffffffffffffffff16815260200190815260200160002060009054906101000a900460ff16905092915050565b60007f01ffc9a7000000000000000000000000000000000000000000000000000000007bffffffffffffffffffffffffffffffffffffffffffffffffffffffff1916827bffffffffffffffffffffffffffffffffffffffffffffffffffffffff1916149050919050565b60008073ffffffffffffffffffffffffffffffffffffffff166002600084815260200190815260200160002060009054906101000a900473ffffffffffffffffffffffffffffffffffffffff1673ffffffffffffffffffffffffffffffffffffffff1614159050919050565b600033905090565b816004600083815260200190815260200160002060006101000a81548173ffffffffffffffffffffffffffffffffffffffff021916908373ffffffffffffffffffffffffffffffffffffffff160217905550808273ffffffffffffffffffffffffffffffffffffffff166112ac83610a0c565b73ffffffffffffffffffffffffffffffffffffffff167f8c5be1e5ebec7d5bd14f71427d1e84f3dd0314c0f7b2291e5b200ac8c7c3b92560405160405180910390a45050565b60006112fd826111c5565b61133c576040517f08c379a000000000000000000000000000000000000000000000000000000000815260040161133390612f0b565b60405180910390fd5b600061134783610a0c565b90508073ffffffffffffffffffffffffffffffffffffffff168473ffffffffffffffffffffffffffffffffffffffff1614806113b657508373ffffffffffffffffffffffffffffffffffffffff1661139e84610547565b73ffffffffffffffffffffffffffffffffffffffff16145b806113c757506113c681856110c7565b5b91505092915050565b8273ffffffffffffffffffffffffffffffffffffffff166113f082610a0c565b73ffffffffffffffffffffffffffffffffffffffff1614611446576040517f08c379a000000000000000000000000000000000000000000000000000000000815260040161143d9061302b565b60405180910390fd5b600073ffffffffffffffffffffffffffffffffffffffff168273ffffffffffffffffffffffffffffffffffffffff1614156114b6576040517f08c379a00000000000000000000000000000000000000000000000000000000081526004016114ad90612ecb565b60405180910390fd5b6114c1838383611b66565b6114cc600082611239565b6001600360008573ffffffffffffffffffffffffffffffffffffffff1673ffffffffffffffffffffffffffffffffffffffff168152602001908152602001600020600082825461151c9190613266565b925050819055506001600360008473ffffffffffffffffffffffffffffffffffffffff1673ffffffffffffffffffffffffffffffffffffffff168152602001908152602001600020600082825461157391906131df565b92505081905550816002600083815260200190815260200160002060006101000a81548173ffffffffffffffffffffffffffffffffffffffff021916908373ffffffffffffffffffffffffffffffffffffffff160217905550808273ffffffffffffffffffffffffffffffffffffffff168473ffffffffffffffffffffffffffffffffffffffff167fddf252ad1be2c89b69c2b068fc378daa952ba7f163c4a11628f55a4df523b3ef60405160405180910390a4505050565b6001816000016000828254019250508190555050565b600081600001549050919050565b600083600a6000888152602001908152602001600020600001908051906020019061167c929190611ffb565b5082600a600088815260200190815260200160002060020190805190602001906116a7929190611ffb565b5081600a600088815260200190815260200160002060030190805190602001906116d2929190611ffb565b5084600a600088815260200190815260200160002060010190805190602001906116fd929190611ffb565b5042600a600088815260200190815260200160002060040181905550846040516117279190612d06565b6040518091039020867fd9055ca42b5952c5c705602e75c6d155b73c02fc6bdcfc7df5048f8a9904bbe442876040516117619291906130c6565b60405180910390a36001905095945050505050565b600073ffffffffffffffffffffffffffffffffffffffff168273ffffffffffffffffffffffffffffffffffffffff1614156117e6576040517f08c379a00000000000000000000000000000000000000000000000000000000081526004016117dd90612fcb565b60405180910390fd5b6117ef816111c5565b1561182f576040517f08c379a000000000000000000000000000000000000000000000000000000000815260040161182690612e8b565b60405180910390fd5b61183b60008383611b66565b6001600360008473ffffffffffffffffffffffffffffffffffffffff1673ffffffffffffffffffffffffffffffffffffffff168152602001908152602001600020600082825461188b91906131df565b92505081905550816002600083815260200190815260200160002060006101000a81548173ffffffffffffffffffffffffffffffffffffffff021916908373ffffffffffffffffffffffffffffffffffffffff160217905550808273ffffffffffffffffffffffffffffffffffffffff16600073ffffffffffffffffffffffffffffffffffffffff167fddf252ad1be2c89b69c2b068fc378daa952ba7f163c4a11628f55a4df523b3ef60405160405180910390a45050565b61194d826111c5565b61198c576040517f08c379a000000000000000000000000000000000000000000000000000000000815260040161198390612fab565b60405180910390fd5b806006600084815260200190815260200160002090805190602001906119b3929190611ffb565b505050565b6119c38484846113d0565b6119cf84848484611b6b565b611a0e576040517f08c379a0000000000000000000000000000000000000000000000000000000008152600401611a0590612e6b565b60405180910390fd5b50505050565b6060611a1f826111c5565b611a5e576040517f08c379a0000000000000000000000000000000000000000000000000000000008152600401611a5590612feb565b60405180910390fd5b6000600660008481526020019081526020016000208054611a7e90613350565b80601f0160208091040260200160405190810160405280929190818152602001828054611aaa90613350565b8015611af75780601f10611acc57610100808354040283529160200191611af7565b820191906000526020600020905b815481529060010190602001808311611ada57829003601f168201915b505050505090506000611b08611d02565b9050600081511415611b1e578192505050611b61565b600082511115611b53578082604051602001611b3b929190612d1d565b60405160208183030381529060405292505050611b61565b611b5c84611d94565b925050505b919050565b505050565b6000611b8c8473ffffffffffffffffffffffffffffffffffffffff16611e3b565b15611cf5578373ffffffffffffffffffffffffffffffffffffffff1663150b7a02611bb5611231565b8786866040518563ffffffff1660e01b8152600401611bd79493929190612d73565b602060405180830381600087803b158015611bf157600080fd5b505af1925050508015611c2257506040513d601f19601f82011682018060405250810190611c1f91906123a7565b60015b611ca5573d8060008114611c52576040519150601f19603f3d011682016040523d82523d6000602084013e611c57565b606091505b50600081511415611c9d576040517f08c379a0000000000000000000000000000000000000000000000000000000008152600401611c9490612e6b565b60405180910390fd5b805181602001fd5b63150b7a0260e01b7bffffffffffffffffffffffffffffffffffffffffffffffffffffffff1916817bffffffffffffffffffffffffffffffffffffffffffffffffffffffff191614915050611cfa565b600190505b949350505050565b606060088054611d1190613350565b80601f0160208091040260200160405190810160405280929190818152602001828054611d3d90613350565b8015611d8a5780601f10611d5f57610100808354040283529160200191611d8a565b820191906000526020600020905b815481529060010190602001808311611d6d57829003601f168201915b5050505050905090565b6060611d9f826111c5565b611dde576040517f08c379a0000000000000000000000000000000000000000000000000000000008152600401611dd59061304b565b60405180910390fd5b6000611de8611d02565b90506000815111611e085760405180602001604052806000815250611e33565b80611e1284611e4e565b604051602001611e23929190612d1d565b6040516020818303038152906040525b915050919050565b600080823b905060008111915050919050565b60606000821415611e96576040518060400160405280600181526020017f30000000000000000000000000000000000000000000000000000000000000008152509050611ff6565b600082905060005b60008214611ec8578080611eb190613382565b915050600a82611ec19190613235565b9150611e9e565b60008167ffffffffffffffff811115611f0a577f4e487b7100000000000000000000000000000000000000000000000000000000600052604160045260246000fd5b6040519080825280601f01601f191660200182016040528015611f3c5781602001600182028036833780820191505090505b5090505b60008514611fef57600182611f559190613266565b9150600a85611f6491906133cb565b6030611f7091906131df565b60f81b818381518110611fac577f4e487b7100000000000000000000000000000000000000000000000000000000600052603260045260246000fd5b60200101907effffffffffffffffffffffffffffffffffffffffffffffffffffffffffffff1916908160001a905350600a85611fe89190613235565b9450611f40565b8093505050505b919050565b82805461200790613350565b90600052602060002090601f0160209004810192826120295760008555612070565b82601f1061204257805160ff1916838001178555612070565b82800160010185558215612070579182015b8281111561206f578251825591602001919060010190612054565b5b50905061207d9190612081565b5090565b5b8082111561209a576000816000905550600101612082565b5090565b60006120b16120ac84613127565b6130f6565b9050828152602081018484840111156120c957600080fd5b6120d484828561330e565b509392505050565b60006120ef6120ea84613157565b6130f6565b90508281526020810184848401111561210757600080fd5b61211284828561330e565b509392505050565b600081359050612129816134c9565b92915050565b60008135905061213e816134e0565b92915050565b600081359050612153816134f7565b92915050565b600081519050612168816134f7565b92915050565b600082601f83011261217f57600080fd5b813561218f84826020860161209e565b91505092915050565b600082601f8301126121a957600080fd5b81356121b98482602086016120dc565b91505092915050565b6000813590506121d18161350e565b92915050565b6000602082840312156121e957600080fd5b60006121f78482850161211a565b91505092915050565b6000806040838503121561221357600080fd5b60006122218582860161211a565b92505060206122328582860161211a565b9150509250929050565b60008060006060848603121561225157600080fd5b600061225f8682870161211a565b93505060206122708682870161211a565b9250506040612281868287016121c2565b9150509250925092565b600080600080608085870312156122a157600080fd5b60006122af8782880161211a565b94505060206122c08782880161211a565b93505060406122d1878288016121c2565b925050606085013567ffffffffffffffff8111156122ee57600080fd5b6122fa8782880161216e565b91505092959194509250565b6000806040838503121561231957600080fd5b60006123278582860161211a565b92505060206123388582860161212f565b9150509250929050565b6000806040838503121561235557600080fd5b60006123638582860161211a565b9250506020612374858286016121c2565b9150509250929050565b60006020828403121561239057600080fd5b600061239e84828501612144565b91505092915050565b6000602082840312156123b957600080fd5b60006123c784828501612159565b91505092915050565b6000602082840312156123e257600080fd5b600082013567ffffffffffffffff8111156123fc57600080fd5b61240884828501612198565b91505092915050565b6000806000806080858703121561242757600080fd5b600085013567ffffffffffffffff81111561244157600080fd5b61244d87828801612198565b945050602085013567ffffffffffffffff81111561246a57600080fd5b61247687828801612198565b935050604085013567ffffffffffffffff81111561249357600080fd5b61249f87828801612198565b925050606085013567ffffffffffffffff8111156124bc57600080fd5b6124c887828801612198565b91505092959194509250565b6000602082840312156124e657600080fd5b60006124f4848285016121c2565b91505092915050565b6125068161329a565b82525050565b612515816132ac565b82525050565b60006125268261319c565b61253081856131b2565b935061254081856020860161331d565b612549816134b8565b840191505092915050565b600061255f826131a7565b61256981856131c3565b935061257981856020860161331d565b612582816134b8565b840191505092915050565b6000612598826131a7565b6125a281856131d4565b93506125b281856020860161331d565b80840191505092915050565b600081546125cb81613350565b6125d581866131d4565b945060018216600081146125f0576001811461260157612634565b60ff19831686528186019350612634565b61260a85613187565b60005b8381101561262c5781548189015260018201915060208101905061260d565b838801955050505b50505092915050565b600061264a6032836131c3565b91507f4552433732313a207472616e7366657220746f206e6f6e20455243373231526560008301527f63656976657220696d706c656d656e74657200000000000000000000000000006020830152604082019050919050565b60006126b0601c836131c3565b91507f4552433732313a20746f6b656e20616c7265616479206d696e746564000000006000830152602082019050919050565b60006126f06027836131c3565b91507f54686973204d6574686f642063616e206f6e6c792062652063616c6c6564206260008301527f79206f776e6572000000000000000000000000000000000000000000000000006020830152604082019050919050565b60006127566024836131c3565b91507f4552433732313a207472616e7366657220746f20746865207a65726f2061646460008301527f72657373000000000000000000000000000000000000000000000000000000006020830152604082019050919050565b60006127bc6019836131c3565b91507f4552433732313a20617070726f766520746f2063616c6c6572000000000000006000830152602082019050919050565b60006127fc602c836131c3565b91507f4552433732313a206f70657261746f7220717565727920666f72206e6f6e657860008301527f697374656e7420746f6b656e00000000000000000000000000000000000000006020830152604082019050919050565b60006128626026836131c3565b91507f4661696c65642077726974652061727469636c6520746f2074686520626c6f6360008301527f6b636861696e00000000000000000000000000000000000000000000000000006020830152604082019050919050565b60006128c86038836131c3565b91507f4552433732313a20617070726f76652063616c6c6572206973206e6f74206f7760008301527f6e6572206e6f7220617070726f76656420666f7220616c6c00000000000000006020830152604082019050919050565b600061292e602a836131c3565b91507f4552433732313a2062616c616e636520717565727920666f7220746865207a6560008301527f726f2061646472657373000000000000000000000000000000000000000000006020830152604082019050919050565b60006129946029836131c3565b91507f4552433732313a206f776e657220717565727920666f72206e6f6e657869737460008301527f656e7420746f6b656e00000000000000000000000000000000000000000000006020830152604082019050919050565b60006129fa602e836131c3565b91507f45524337323155524953746f726167653a2055524920736574206f66206e6f6e60008301527f6578697374656e7420746f6b656e0000000000000000000000000000000000006020830152604082019050919050565b6000612a606020836131c3565b91507f4552433732313a206d696e7420746f20746865207a65726f20616464726573736000830152602082019050919050565b6000612aa06031836131c3565b91507f45524337323155524953746f726167653a2055524920717565727920666f722060008301527f6e6f6e6578697374656e7420746f6b656e0000000000000000000000000000006020830152604082019050919050565b6000612b06602c836131c3565b91507f4552433732313a20617070726f76656420717565727920666f72206e6f6e657860008301527f697374656e7420746f6b656e00000000000000000000000000000000000000006020830152604082019050919050565b6000612b6c6029836131c3565b91507f4552433732313a207472616e73666572206f6620746f6b656e2074686174206960008301527f73206e6f74206f776e00000000000000000000000000000000000000000000006020830152604082019050919050565b6000612bd2602f836131c3565b91507f4552433732314d657461646174613a2055524920717565727920666f72206e6f60008301527f6e6578697374656e7420746f6b656e00000000000000000000000000000000006020830152604082019050919050565b6000612c386021836131c3565b91507f4552433732313a20617070726f76616c20746f2063757272656e74206f776e6560008301527f72000000000000000000000000000000000000000000000000000000000000006020830152604082019050919050565b6000612c9e6031836131c3565b91507f4552433732313a207472616e736665722063616c6c6572206973206e6f74206f60008301527f776e6572206e6f7220617070726f7665640000000000000000000000000000006020830152604082019050919050565b612d0081613304565b82525050565b6000612d12828461258d565b915081905092915050565b6000612d29828561258d565b9150612d35828461258d565b91508190509392505050565b6000612d4d82846125be565b915081905092915050565b6000602082019050612d6d60008301846124fd565b92915050565b6000608082019050612d8860008301876124fd565b612d9560208301866124fd565b612da26040830185612cf7565b8181036060830152612db4818461251b565b905095945050505050565b6000602082019050612dd4600083018461250c565b92915050565b60006020820190508181036000830152612df48184612554565b905092915050565b600060a0820190508181036000830152612e168188612554565b90508181036020830152612e2a8187612554565b90508181036040830152612e3e8186612554565b90508181036060830152612e528185612554565b9050612e616080830184612cf7565b9695505050505050565b60006020820190508181036000830152612e848161263d565b9050919050565b60006020820190508181036000830152612ea4816126a3565b9050919050565b60006020820190508181036000830152612ec4816126e3565b9050919050565b60006020820190508181036000830152612ee481612749565b9050919050565b60006020820190508181036000830152612f04816127af565b9050919050565b60006020820190508181036000830152612f24816127ef565b9050919050565b60006020820190508181036000830152612f4481612855565b9050919050565b60006020820190508181036000830152612f64816128bb565b9050919050565b60006020820190508181036000830152612f8481612921565b9050919050565b60006020820190508181036000830152612fa481612987565b9050919050565b60006020820190508181036000830152612fc4816129ed565b9050919050565b60006020820190508181036000830152612fe481612a53565b9050919050565b6000602082019050818103600083015261300481612a93565b9050919050565b6000602082019050818103600083015261302481612af9565b9050919050565b6000602082019050818103600083015261304481612b5f565b9050919050565b6000602082019050818103600083015261306481612bc5565b9050919050565b6000602082019050818103600083015261308481612c2b565b9050919050565b600060208201905081810360008301526130a481612c91565b9050919050565b60006020820190506130c06000830184612cf7565b92915050565b60006040820190506130db6000830185612cf7565b81810360208301526130ed8184612554565b90509392505050565b6000604051905081810181811067ffffffffffffffff8211171561311d5761311c613489565b5b8060405250919050565b600067ffffffffffffffff82111561314257613141613489565b5b601f19601f8301169050602081019050919050565b600067ffffffffffffffff82111561317257613171613489565b5b601f19601f8301169050602081019050919050565b60008190508160005260206000209050919050565b600081519050919050565b600081519050919050565b600082825260208201905092915050565b600082825260208201905092915050565b600081905092915050565b60006131ea82613304565b91506131f583613304565b9250827fffffffffffffffffffffffffffffffffffffffffffffffffffffffffffffffff0382111561322a576132296133fc565b5b828201905092915050565b600061324082613304565b915061324b83613304565b92508261325b5761325a61342b565b5b828204905092915050565b600061327182613304565b915061327c83613304565b92508282101561328f5761328e6133fc565b5b828203905092915050565b60006132a5826132e4565b9050919050565b60008115159050919050565b60007fffffffff0000000000000000000000000000000000000000000000000000000082169050919050565b600073ffffffffffffffffffffffffffffffffffffffff82169050919050565b6000819050919050565b82818337600083830152505050565b60005b8381101561333b578082015181840152602081019050613320565b8381111561334a576000848401525b50505050565b6000600282049050600182168061336857607f821691505b6020821081141561337c5761337b61345a565b5b50919050565b600061338d82613304565b91507fffffffffffffffffffffffffffffffffffffffffffffffffffffffffffffffff8214156133c0576133bf6133fc565b5b600182019050919050565b60006133d682613304565b91506133e183613304565b9250826133f1576133f061342b565b5b828206905092915050565b7f4e487b7100000000000000000000000000000000000000000000000000000000600052601160045260246000fd5b7f4e487b7100000000000000000000000000000000000000000000000000000000600052601260045260246000fd5b7f4e487b7100000000000000000000000000000000000000000000000000000000600052602260045260246000fd5b7f4e487b7100000000000000000000000000000000000000000000000000000000600052604160045260246000fd5b6000601f19601f8301169050919050565b6134d28161329a565b81146134dd57600080fd5b50565b6134e9816132ac565b81146134f457600080fd5b50565b613500816132b8565b811461350b57600080fd5b50565b61351781613304565b811461352257600080fd5b5056fea26469706673582212200548795da2a91af7bba6aa11d0ed61f44d42242566aa01a660c4f9bd360e9adb64736f6c63430008000033",
  "immutableReferences": {},
  "source": "    pragma solidity ^0.8.0;\n\n    import \"@openzeppelin/contracts/token/ERC721/ERC721.sol\";\n    import \"@openzeppelin/contracts/token/ERC721/extensions/ERC721URIStorage.sol\";\n    import \"@openzeppelin/contracts/utils/Counters.sol\";\n\n    contract IqbalNotes is ERC721, ERC721URIStorage {\n        using Counters for Counters.Counter;\n        Counters.Counter private articleNumber;\n\n        event NewArticlePublished(uint indexed _articleId, string indexed _slug, uint _timestamp, string _title);\n        event PromoteNewBaseURI(string indexed _baseURI, uint timestamp);\n\n        string public BASEURI;\n        address public owner;\n        constructor() ERC721(\"notes.iqbalsyamil.com\", \"IQBALNOTES\") {\n            // BASEURI = \"https://github.com/2pai/support-me/item/\"\n            owner = msg.sender;\n        }\n        \n        struct Article {\n            string title;\n            string slug;\n            string body;\n            string signature;\n            uint timestamp;\n        }\n\n        mapping(uint => Article) Articles;\n\n        modifier onlyOwner {\n            require(msg.sender == owner, \"This Method can only be called by owner\");\n            _;\n        }\n        /**\n          @dev Read the metadata onchain\n          @notice Use this function to get article metadata by inserting article id\n          @return title Of the article\n          @return slug of the article\n          @return body that contain IPFS CID that store article\n          @return signature that given proof that this article is minted by author\n          @return timestamp The time that article was published & minted to blockhain\n        */\n        function article(uint _id) public view returns(string memory, string memory, string memory, string memory, uint timestamp){\n            Article memory _article = Articles[_id];\n            \n            return (_article.title, _article.slug, _article.body, _article.signature, _article.timestamp);\n        }\n\n        /**\n        \n        */\n        function insertArticle(uint _id, string memory _slug, string memory _title, string memory _body, string memory _signature) internal returns (bool) {\n            Articles[_id].title = _title;\n            Articles[_id].body = _body;\n            Articles[_id].signature = _signature;\n            Articles[_id].slug = _slug;\n            Articles[_id].timestamp = block.timestamp;\n\n            emit NewArticlePublished(_id, _slug, block.timestamp, _title);\n            \n            return true;\n        }\n\n        /**\n            @notice Use this function to create new article and mint into ERC721 Token (NFT)\n            @param title the title of article\n            @param slug the slug of the article\n            @param body IPFS CID that store article\n            @param signature a signature of the author that can be verified by owner publickey \n            @return token id of ERC721 that represent the article\n          */\n        function writeNewArticle(string memory title, string memory slug, string memory body, string memory signature) external onlyOwner returns (uint256) {\n            \n            articleNumber.increment(); \n            uint256 newArticleNumber = articleNumber.current();\n            \n            require(insertArticle(newArticleNumber, slug, title, body, signature), \"Failed write article to the blockchain\");\n            \n            _mint(msg.sender, newArticleNumber); // Mint NFT Token of the article\n            _setTokenURI(newArticleNumber, slug);\n\n            return newArticleNumber;\n        }\n\n        /**\n          @notice Change the contract BASEURI global variable\n          @param newBaseURI the new URI that replace old BASEURI\n          @return true if the changes happend\n        */\n        function promoteNewBaseURI(string memory newBaseURI) external onlyOwner returns(bool){\n            BASEURI = newBaseURI;\n            emit PromoteNewBaseURI(BASEURI, block.timestamp);\n            return true;\n        }\n\n        function _baseURI() internal view override returns (string memory) {\n            return BASEURI;\n        }\n        \n        function _burn(uint256 tokenId) internal override(ERC721, ERC721URIStorage) {\n            super._burn(tokenId);\n        }\n        \n        function tokenURI(uint256 tokenId)\n            public\n            view\n            override(ERC721, ERC721URIStorage)\n            returns (string memory)\n        {\n            return super.tokenURI(tokenId);\n        }\n\n    }\n",
  "sourcePath": "/Users/iqbal/iqbal/side-project/notes.iqbalsyamil.com/contracts/iqbalNotes.sol",
  "compiler": {
    "name": "solc",
    "version": "0.8.0+commit.c7dfd78e.Emscripten.clang"
  },
  "schemaVersion": "3.3.3",
  "updatedAt": "2021-08-13T15:32:58.065Z",
  "devdoc": {
    "kind": "dev",
    "methods": {
      "approve(address,uint256)": {
        "details": "See {IERC721-approve}."
      },
      "article(uint256)": {
        "details": "Read the metadata onchain",
        "returns": {
          "_0": "title Of the article",
          "_1": "slug of the article",
          "_2": "body that contain IPFS CID that store article",
          "_3": "signature that given proof that this article is minted by author",
          "timestamp": "The time that article was published & minted to blockhain"
        }
      },
      "balanceOf(address)": {
        "details": "See {IERC721-balanceOf}."
      },
      "getApproved(uint256)": {
        "details": "See {IERC721-getApproved}."
      },
      "isApprovedForAll(address,address)": {
        "details": "See {IERC721-isApprovedForAll}."
      },
      "name()": {
        "details": "See {IERC721Metadata-name}."
      },
      "ownerOf(uint256)": {
        "details": "See {IERC721-ownerOf}."
      },
      "promoteNewBaseURI(string)": {
        "params": {
          "newBaseURI": "the new URI that replace old BASEURI"
        },
        "returns": {
          "_0": "true if the changes happend"
        }
      },
      "safeTransferFrom(address,address,uint256)": {
        "details": "See {IERC721-safeTransferFrom}."
      },
      "safeTransferFrom(address,address,uint256,bytes)": {
        "details": "See {IERC721-safeTransferFrom}."
      },
      "setApprovalForAll(address,bool)": {
        "details": "See {IERC721-setApprovalForAll}."
      },
      "supportsInterface(bytes4)": {
        "details": "See {IERC165-supportsInterface}."
      },
      "symbol()": {
        "details": "See {IERC721Metadata-symbol}."
      },
      "transferFrom(address,address,uint256)": {
        "details": "See {IERC721-transferFrom}."
      },
      "writeNewArticle(string,string,string,string)": {
        "params": {
          "body": "IPFS CID that store article",
          "signature": "a signature of the author that can be verified by owner publickey ",
          "slug": "the slug of the article",
          "title": "the title of article"
        },
        "returns": {
          "_0": "token id of ERC721 that represent the article"
        }
      }
    },
    "version": 1
  },
  "userdoc": {
    "kind": "user",
    "methods": {
      "article(uint256)": {
        "notice": "Use this function to get article metadata by inserting article id"
      },
      "promoteNewBaseURI(string)": {
        "notice": "Change the contract BASEURI global variable"
      },
      "writeNewArticle(string,string,string,string)": {
        "notice": "Use this function to create new article and mint into ERC721 Token (NFT)"
      }
    },
    "version": 1
  }
}